{
  "contractName": "BookingParking",
  "abi": [
    {
      "anonymous": false,
      "inputs": [
        {
          "indexed": false,
          "internalType": "uint256",
          "name": "id",
          "type": "uint256"
        },
        {
          "indexed": false,
          "internalType": "string",
          "name": "name",
          "type": "string"
        },
        {
          "indexed": false,
          "internalType": "uint256",
          "name": "price",
          "type": "uint256"
        },
        {
          "indexed": false,
          "internalType": "string",
          "name": "area",
          "type": "string"
        },
        {
          "indexed": false,
          "internalType": "string",
          "name": "time",
          "type": "string"
        },
        {
          "indexed": false,
          "internalType": "string",
          "name": "hour",
          "type": "string"
        },
        {
          "indexed": false,
          "internalType": "address payable",
          "name": "owner",
          "type": "address"
        }
      ],
      "name": "BookingCreated",
      "type": "event"
    },
    {
      "inputs": [
        {
          "internalType": "uint256",
          "name": "",
          "type": "uint256"
        },
        {
          "internalType": "uint256",
          "name": "",
          "type": "uint256"
        }
      ],
      "name": "listArea",
      "outputs": [
        {
          "internalType": "string",
          "name": "",
          "type": "string"
        }
      ],
      "stateMutability": "view",
      "type": "function",
      "constant": true
    },
    {
      "inputs": [
        {
          "internalType": "string",
          "name": "_name",
          "type": "string"
        },
        {
          "internalType": "uint256",
          "name": "_price",
          "type": "uint256"
        },
        {
          "internalType": "string",
          "name": "_area",
          "type": "string"
        },
        {
          "internalType": "string",
          "name": "_time",
          "type": "string"
        },
        {
          "internalType": "string",
          "name": "_hour",
          "type": "string"
        }
      ],
      "name": "booking",
      "outputs": [],
      "stateMutability": "payable",
      "type": "function",
      "payable": true
    },
    {
      "inputs": [],
      "name": "getListArea",
      "outputs": [
        {
          "internalType": "string[][]",
          "name": "area",
          "type": "string[][]"
        }
      ],
      "stateMutability": "view",
      "type": "function",
      "constant": true
    },
    {
      "inputs": [],
      "name": "popListArea",
      "outputs": [],
      "stateMutability": "nonpayable",
      "type": "function"
    }
  ],
  "bytecode": "0x608060405234801561001057600080fd5b50610c54806100206000396000f3fe60806040526004361061003f5760003560e01c806355e4ce9b146100445780636904a8bf1461005b578063947b371d14610098578063c77df2fa146100b4575b600080fd5b34801561005057600080fd5b506100596100df565b005b34801561006757600080fd5b50610082600480360381019061007d9190610564565b610111565b60405161008f919061063d565b60405180910390f35b6100b260048036038101906100ad9190610794565b6101d6565b005b3480156100c057600080fd5b506100c9610272565b6040516100d69190610a4d565b60405180910390f35b60008054806100f1576100f0610a6f565b5b60019003818190600052602060002001600061010d9190610392565b9055565b6000828154811061012157600080fd5b90600052602060002001818154811061013957600080fd5b9060005260206000200160009150915050805461015590610acd565b80601f016020809104026020016040519081016040528092919081815260200182805461018190610acd565b80156101ce5780601f106101a3576101008083540402835291602001916101ce565b820191906000526020600020905b8154815290600101906020018083116101b157829003601f168201915b505050505081565b6000604051806060016040528084815260200183815260200185815250908060018154018082558091505060019003906000526020600020016000909190919091509060036102269291906103b3565b507fc8974e3bdc4eaf5e226c67010a2b24ca43ad54bc656b0824f64d12a19c9da69260018686868686336040516102639796959493929190610b93565b60405180910390a15050505050565b60606000805480602002602001604051908101604052809291908181526020016000905b8282101561038957838290600052602060002001805480602002602001604051908101604052809291908181526020016000905b828210156103765783829060005260206000200180546102e990610acd565b80601f016020809104026020016040519081016040528092919081815260200182805461031590610acd565b80156103625780601f1061033757610100808354040283529160200191610362565b820191906000526020600020905b81548152906001019060200180831161034557829003601f168201915b5050505050815260200190600101906102ca565b5050505081526020019060010190610296565b50505050905090565b50805460008255906000526020600020908101906103b09190610413565b50565b828054828255906000526020600020908101928215610402579160200282015b828111156104015782518290805190602001906103f1929190610437565b50916020019190600101906103d3565b5b50905061040f9190610413565b5090565b5b80821115610433576000818161042a91906104bd565b50600101610414565b5090565b82805461044390610acd565b90600052602060002090601f01602090048101928261046557600085556104ac565b82601f1061047e57805160ff19168380011785556104ac565b828001600101855582156104ac579182015b828111156104ab578251825591602001919060010190610490565b5b5090506104b991906104fd565b5090565b5080546104c990610acd565b6000825580601f106104db57506104fa565b601f0160209004906000526020600020908101906104f991906104fd565b5b50565b5b808211156105165760008160009055506001016104fe565b5090565b6000604051905090565b600080fd5b600080fd5b6000819050919050565b6105418161052e565b811461054c57600080fd5b50565b60008135905061055e81610538565b92915050565b6000806040838503121561057b5761057a610524565b5b60006105898582860161054f565b925050602061059a8582860161054f565b9150509250929050565b600081519050919050565b600082825260208201905092915050565b60005b838110156105de5780820151818401526020810190506105c3565b838111156105ed576000848401525b50505050565b6000601f19601f8301169050919050565b600061060f826105a4565b61061981856105af565b93506106298185602086016105c0565b610632816105f3565b840191505092915050565b600060208201905081810360008301526106578184610604565b905092915050565b600080fd5b600080fd5b7f4e487b7100000000000000000000000000000000000000000000000000000000600052604160045260246000fd5b6106a1826105f3565b810181811067ffffffffffffffff821117156106c0576106bf610669565b5b80604052505050565b60006106d361051a565b90506106df8282610698565b919050565b600067ffffffffffffffff8211156106ff576106fe610669565b5b610708826105f3565b9050602081019050919050565b82818337600083830152505050565b6000610737610732846106e4565b6106c9565b90508281526020810184848401111561075357610752610664565b5b61075e848285610715565b509392505050565b600082601f83011261077b5761077a61065f565b5b813561078b848260208601610724565b91505092915050565b600080600080600060a086880312156107b0576107af610524565b5b600086013567ffffffffffffffff8111156107ce576107cd610529565b5b6107da88828901610766565b95505060206107eb8882890161054f565b945050604086013567ffffffffffffffff81111561080c5761080b610529565b5b61081888828901610766565b935050606086013567ffffffffffffffff81111561083957610838610529565b5b61084588828901610766565b925050608086013567ffffffffffffffff81111561086657610865610529565b5b61087288828901610766565b9150509295509295909350565b600081519050919050565b600082825260208201905092915050565b6000819050602082019050919050565b600081519050919050565b600082825260208201905092915050565b6000819050602082019050919050565b600082825260208201905092915050565b60006108f3826105a4565b6108fd81856108d7565b935061090d8185602086016105c0565b610916816105f3565b840191505092915050565b600061092d83836108e8565b905092915050565b6000602082019050919050565b600061094d826108ab565b61095781856108b6565b935083602082028501610969856108c7565b8060005b858110156109a557848403895281516109868582610921565b945061099183610935565b925060208a0199505060018101905061096d565b50829750879550505050505092915050565b60006109c38383610942565b905092915050565b6000602082019050919050565b60006109e38261087f565b6109ed818561088a565b9350836020820285016109ff8561089b565b8060005b85811015610a3b5784840389528151610a1c85826109b7565b9450610a27836109cb565b925060208a01995050600181019050610a03565b50829750879550505050505092915050565b60006020820190508181036000830152610a6781846109d8565b905092915050565b7f4e487b7100000000000000000000000000000000000000000000000000000000600052603160045260246000fd5b7f4e487b7100000000000000000000000000000000000000000000000000000000600052602260045260246000fd5b60006002820490506001821680610ae557607f821691505b602082108103610af857610af7610a9e565b5b50919050565b6000819050919050565b6000819050919050565b6000610b2d610b28610b2384610afe565b610b08565b61052e565b9050919050565b610b3d81610b12565b82525050565b610b4c8161052e565b82525050565b600073ffffffffffffffffffffffffffffffffffffffff82169050919050565b6000610b7d82610b52565b9050919050565b610b8d81610b72565b82525050565b600060e082019050610ba8600083018a610b34565b8181036020830152610bba8189610604565b9050610bc96040830188610b43565b8181036060830152610bdb8187610604565b90508181036080830152610bef8186610604565b905081810360a0830152610c038185610604565b9050610c1260c0830184610b84565b9897505050505050505056fea264697066735822122008e549d32185b3b97da728b91e56c74046711055404db585e54c281055497f0a64736f6c634300080e0033",
  "immutableReferences": {},
  "source": "// SPDX-License-Identifier: MIT\npragma solidity >=0.7.0 <0.9.0;\n\ncontract BookingParking {\n  string[][] public listArea;\n\n  event BookingCreated(\n    uint id,\n    string name,\n    uint price,\n    string area,\n    string time,\n    string hour,\n    address payable owner\n  );\n\n  function booking(string memory _name, uint _price, string memory _area, string memory _time, string memory _hour) public payable {\n    listArea.push([_time, _hour, _area]);\n    emit BookingCreated(1, _name, _price, _area, _time, _hour, payable(msg.sender));\n  }\n\n  function getListArea() public view returns (string[][] memory area){\n    area = listArea;\n    return area;\n  }\n\n  function popListArea() public {\n    listArea.pop();\n  }\n\n}\n",
  "sourcePath": "D:\\Belajar react.js\\smart-parking\\truffle\\contracts\\BookingParking.sol",
  "compiler": {
    "name": "solc",
    "version": "0.8.14+commit.80d49f37.Emscripten.clang"
  },
  "schemaVersion": "3.4.10",
  "updatedAt": "2022-11-22T23:04:13.674Z",
  "networkType": "ethereum",
  "devdoc": {
    "kind": "dev",
    "methods": {},
    "version": 1
  },
  "userdoc": {
    "kind": "user",
    "methods": {},
    "version": 1
  }
}